{
  "contractName": "SimpleStorage",
  "abi": [
    {
      "constant": false,
      "inputs": [
        {
          "internalType": "string",
          "name": "_firstName",
          "type": "string"
        },
        {
          "internalType": "string",
          "name": "_lastName",
          "type": "string"
        },
        {
          "internalType": "string",
          "name": "_matricNo",
          "type": "string"
        },
        {
          "internalType": "string",
          "name": "_ipfsHash",
          "type": "string"
        },
        {
          "internalType": "string",
          "name": "_ipfsHashFingerprint",
          "type": "string"
        }
      ],
      "name": "set",
      "outputs": [],
      "payable": false,
      "stateMutability": "nonpayable",
      "type": "function"
    },
    {
      "constant": true,
      "inputs": [
        {
          "internalType": "string",
          "name": "_firstName",
          "type": "string"
        },
        {
          "internalType": "string",
          "name": "_lastName",
          "type": "string"
        },
        {
          "internalType": "string",
          "name": "_matricNo",
          "type": "string"
        }
      ],
      "name": "get",
      "outputs": [
        {
          "internalType": "string",
          "name": "",
          "type": "string"
        }
      ],
      "payable": false,
      "stateMutability": "view",
      "type": "function"
    },
    {
      "constant": false,
      "inputs": [
        {
          "internalType": "string",
          "name": "_matricNo",
          "type": "string"
        },
        {
          "internalType": "string",
          "name": "_ipfsHashFingerprint",
          "type": "string"
        }
      ],
      "name": "setFingerPrint",
      "outputs": [],
      "payable": false,
      "stateMutability": "nonpayable",
      "type": "function"
    },
    {
      "constant": true,
      "inputs": [
        {
          "internalType": "string",
          "name": "_matricNo",
          "type": "string"
        }
      ],
      "name": "getFingerPrint",
      "outputs": [
        {
          "internalType": "string",
          "name": "",
          "type": "string"
        }
      ],
      "payable": false,
      "stateMutability": "view",
      "type": "function"
    }
  ],
  "bytecode": "0x608060405234801561001057600080fd5b506110d3806100206000396000f3fe608060405234801561001057600080fd5b506004361061004c5760003560e01c806304f61f5a146100515780631a0b8d55146102b35780637159df33146105ca5780637357d1851461071c575b600080fd5b6102386004803603606081101561006757600080fd5b810190808035906020019064010000000081111561008457600080fd5b82018360208201111561009657600080fd5b803590602001918460018302840111640100000000831117156100b857600080fd5b91908080601f016020809104026020016040519081016040528093929190818152602001838380828437600081840152601f19601f8201169050808301925050505050505091929192908035906020019064010000000081111561011b57600080fd5b82018360208201111561012d57600080fd5b8035906020019184600183028401116401000000008311171561014f57600080fd5b91908080601f016020809104026020016040519081016040528093929190818152602001838380828437600081840152601f19601f820116905080830192505050505050509192919290803590602001906401000000008111156101b257600080fd5b8201836020820111156101c457600080fd5b803590602001918460018302840111640100000000831117156101e657600080fd5b91908080601f016020809104026020016040519081016040528093929190818152602001838380828437600081840152601f19601f820116905080830192505050505050509192919290505050610850565b6040518080602001828103825283818151815260200191508051906020019080838360005b8381101561027857808201518184015260208101905061025d565b50505050905090810190601f1680156102a55780820380516001836020036101000a031916815260200191505b509250505060405180910390f35b6105c8600480360360a08110156102c957600080fd5b81019080803590602001906401000000008111156102e657600080fd5b8201836020820111156102f857600080fd5b8035906020019184600183028401116401000000008311171561031a57600080fd5b91908080601f016020809104026020016040519081016040528093929190818152602001838380828437600081840152601f19601f8201169050808301925050505050505091929192908035906020019064010000000081111561037d57600080fd5b82018360208201111561038f57600080fd5b803590602001918460018302840111640100000000831117156103b157600080fd5b91908080601f016020809104026020016040519081016040528093929190818152602001838380828437600081840152601f19601f8201169050808301925050505050505091929192908035906020019064010000000081111561041457600080fd5b82018360208201111561042657600080fd5b8035906020019184600183028401116401000000008311171561044857600080fd5b91908080601f016020809104026020016040519081016040528093929190818152602001838380828437600081840152601f19601f820116905080830192505050505050509192919290803590602001906401000000008111156104ab57600080fd5b8201836020820111156104bd57600080fd5b803590602001918460018302840111640100000000831117156104df57600080fd5b91908080601f016020809104026020016040519081016040528093929190818152602001838380828437600081840152601f19601f8201169050808301925050505050505091929192908035906020019064010000000081111561054257600080fd5b82018360208201111561055457600080fd5b8035906020019184600183028401116401000000008311171561057657600080fd5b91908080601f016020809104026020016040519081016040528093929190818152602001838380828437600081840152601f19601f820116905080830192505050505050509192919290505050610c5b565b005b61071a600480360360408110156105e057600080fd5b81019080803590602001906401000000008111156105fd57600080fd5b82018360208201111561060f57600080fd5b8035906020019184600183028401116401000000008311171561063157600080fd5b91908080601f016020809104026020016040519081016040528093929190818152602001838380828437600081840152601f19601f8201169050808301925050505050505091929192908035906020019064010000000081111561069457600080fd5b8201836020820111156106a657600080fd5b803590602001918460018302840111640100000000831117156106c857600080fd5b91908080601f016020809104026020016040519081016040528093929190818152602001838380828437600081840152601f19601f820116905080830192505050505050509192919290505050610e66565b005b6107d56004803603602081101561073257600080fd5b810190808035906020019064010000000081111561074f57600080fd5b82018360208201111561076157600080fd5b8035906020019184600183028401116401000000008311171561078357600080fd5b91908080601f016020809104026020016040519081016040528093929190818152602001838380828437600081840152601f19601f820116905080830192505050505050509192919290505050610eeb565b6040518080602001828103825283818151815260200191508051906020019080838360005b838110156108155780820151818401526020810190506107fa565b50505050905090810190601f1680156108425780820380516001836020036101000a031916815260200191505b509250505060405180910390f35b6060826040516020018082805190602001908083835b602083106108895780518252602082019150602081019050602083039250610866565b6001836020036101000a038019825116818451168082178552505050505050905001915050604051602081830303815290604052805190602001206001856040518082805190602001908083835b602083106108fa57805182526020820191506020810190506020830392506108d7565b6001836020036101000a0380198251168184511680821785525050505050509050019150509081526020016040518091039020600101604051602001808280546001816001161561010002031660029004801561098e5780601f1061096c57610100808354040283529182019161098e565b820191906000526020600020905b81548152906001019060200180831161097a575b505091505060405160208183030381529060405280519060200120148015610b0a5750816040516020018082805190602001908083835b602083106109e857805182526020820191506020810190506020830392506109c5565b6001836020036101000a038019825116818451168082178552505050505050905001915050604051602081830303815290604052805190602001206001856040518082805190602001908083835b60208310610a595780518252602082019150602081019050602083039250610a36565b6001836020036101000a03801982511681845116808217855250505050505090500191505090815260200160405180910390206002016040516020018082805460018160011615610100020316600290048015610aed5780601f10610acb576101008083540402835291820191610aed565b820191906000526020600020905b815481529060010190602001808311610ad9575b505091505060405160208183030381529060405280519060200120145b15610c1b576001846040518082805190602001908083835b60208310610b455780518252602082019150602081019050602083039250610b22565b6001836020036101000a03801982511681845116808217855250505050505090500191505090815260200160405180910390206003018054600181600116156101000203166002900480601f016020809104026020016040519081016040528092919081815260200182805460018160011615610100020316600290048015610c0f5780601f10610be457610100808354040283529160200191610c0f565b820191906000526020600020905b815481529060010190602001808311610bf257829003601f168201915b50505050509050610c54565b6040518060400160405280600981526020017f4e6f7420666f756e64000000000000000000000000000000000000000000000081525090505b9392505050565b836001866040518082805190602001908083835b60208310610c925780518252602082019150602081019050602083039250610c6f565b6001836020036101000a03801982511681845116808217855250505050505090500191505090815260200160405180910390206001019080519060200190610cdb929190610ff9565b50826001866040518082805190602001908083835b60208310610d135780518252602082019150602081019050602083039250610cf0565b6001836020036101000a03801982511681845116808217855250505050505090500191505090815260200160405180910390206002019080519060200190610d5c929190610ff9565b50816001866040518082805190602001908083835b60208310610d945780518252602082019150602081019050602083039250610d71565b6001836020036101000a03801982511681845116808217855250505050505090500191505090815260200160405180910390206003019080519060200190610ddd929190610ff9565b50806001866040518082805190602001908083835b60208310610e155780518252602082019150602081019050602083039250610df2565b6001836020036101000a03801982511681845116808217855250505050505090500191505090815260200160405180910390206004019080519060200190610e5e929190610ff9565b505050505050565b806002836040518082805190602001908083835b60208310610e9d5780518252602082019150602081019050602083039250610e7a565b6001836020036101000a03801982511681845116808217855250505050505090500191505090815260200160405180910390206001019080519060200190610ee6929190610ff9565b505050565b60606002826040518082805190602001908083835b60208310610f235780518252602082019150602081019050602083039250610f00565b6001836020036101000a03801982511681845116808217855250505050505090500191505090815260200160405180910390206001018054600181600116156101000203166002900480601f016020809104026020016040519081016040528092919081815260200182805460018160011615610100020316600290048015610fed5780601f10610fc257610100808354040283529160200191610fed565b820191906000526020600020905b815481529060010190602001808311610fd057829003601f168201915b50505050509050919050565b828054600181600116156101000203166002900490600052602060002090601f016020900481019282601f1061103a57805160ff1916838001178555611068565b82800160010185558215611068579182015b8281111561106757825182559160200191906001019061104c565b5b5090506110759190611079565b5090565b61109b91905b8082111561109757600081600090555060010161107f565b5090565b9056fea265627a7a723158208b16b297eb72a216587d9e7a76add16c1197c9f25806e2ea58819eefb656e6e164736f6c63430005100032",
  "source": "pragma solidity >=0.4.21 <0.7.0;\r\n\r\ncontract SimpleStorage {\r\n  string storedData;\r\n\r\n\r\n  struct studentInfo{\r\n        string firstName;\r\n        string lastName;\r\n        string matricNo;\r\n        string ipfsHash;\r\n        string ipfsHashFingerprint;\r\n  }\r\n\r\n  struct studentInfoFingerPrint{\r\n        string matricNo;\r\n        string ipfsHashFingerprint;\r\n  }\r\n    \r\n  mapping (string => studentInfo) AllStudents;\r\n\r\n   mapping (string => studentInfoFingerPrint) AllStudentsFingerPrint;\r\n    \r\n\r\n  function set(string memory _firstName, string memory _lastName, string memory _matricNo, string memory _ipfsHash, string memory _ipfsHashFingerprint) public {\r\n        AllStudents[_firstName].lastName = _lastName;\r\n        AllStudents[_firstName].matricNo = _matricNo;\r\n        AllStudents[_firstName].ipfsHash = _ipfsHash;\r\n        AllStudents[_firstName].ipfsHashFingerprint = _ipfsHashFingerprint;\r\n  }\r\n\r\n  function get(string memory _firstName, string memory _lastName, string memory _matricNo) public view returns (string memory) {\r\n\r\n    if (    keccak256(abi.encodePacked( AllStudents[_firstName].lastName )) == keccak256(abi.encodePacked( _lastName )) &&  \r\n      keccak256(abi.encodePacked( AllStudents[_firstName].matricNo )) == keccak256(abi.encodePacked( _matricNo ))          ) {\r\n        return AllStudents[_firstName].ipfsHash;\r\n    }else{\r\n      return \"Not found\";\r\n    }\r\n    \r\n  }\r\n\r\n  function setFingerPrint(string memory _matricNo, string memory _ipfsHashFingerprint) public {\r\n    AllStudentsFingerPrint[_matricNo].ipfsHashFingerprint = _ipfsHashFingerprint;\r\n  }\r\n\r\n  function getFingerPrint(string memory _matricNo) public view returns (string memory) {\r\n\r\n    return AllStudentsFingerPrint[_matricNo].ipfsHashFingerprint;\r\n    \r\n  }\r\n\r\n    \r\n}\r\n",
  "sourcePath": "C:/Users/opeyemi/Blockchain/Blockchain-DApp-Certificate-Verifier/contracts/SimpleStorage.sol",
  "compiler": {
    "name": "solc",
    "version": "0.5.16+commit.9c3226ce.Emscripten.clang"
  },
  "schemaVersion": "3.2.4",
  "updatedAt": "2020-08-28T16:12:48.738Z",
  "networkType": "ethereum",
  "devdoc": {
    "methods": {}
  },
  "userdoc": {
    "methods": {}
  }
}