{
  "contractName": "SimpleStorage",
  "abi": [
    {
      "constant": false,
      "inputs": [
        {
          "internalType": "string",
          "name": "_firstName",
          "type": "string"
        },
        {
          "internalType": "string",
          "name": "_lastName",
          "type": "string"
        },
        {
          "internalType": "string",
          "name": "_matricNo",
          "type": "string"
        },
        {
          "internalType": "string",
          "name": "_ipfsHash",
          "type": "string"
        }
      ],
      "name": "set",
      "outputs": [],
      "payable": false,
      "stateMutability": "nonpayable",
      "type": "function"
    },
    {
      "constant": true,
      "inputs": [
        {
          "internalType": "string",
          "name": "_firstName",
          "type": "string"
        },
        {
          "internalType": "string",
          "name": "_lastName",
          "type": "string"
        },
        {
          "internalType": "string",
          "name": "_matricNo",
          "type": "string"
        }
      ],
      "name": "get",
      "outputs": [
        {
          "internalType": "string",
          "name": "",
          "type": "string"
        }
      ],
      "payable": false,
      "stateMutability": "view",
      "type": "function"
    },
    {
      "constant": false,
      "inputs": [
        {
          "internalType": "string",
          "name": "_firstName",
          "type": "string"
        },
        {
          "internalType": "string",
          "name": "_lastName",
          "type": "string"
        },
        {
          "internalType": "string",
          "name": "_matricNo",
          "type": "string"
        },
        {
          "internalType": "string",
          "name": "_ipfsHash",
          "type": "string"
        }
      ],
      "name": "SetStudentInfo",
      "outputs": [],
      "payable": false,
      "stateMutability": "nonpayable",
      "type": "function"
    },
    {
      "constant": true,
      "inputs": [
        {
          "internalType": "string",
          "name": "_firstName",
          "type": "string"
        },
        {
          "internalType": "string",
          "name": "_lastName",
          "type": "string"
        },
        {
          "internalType": "string",
          "name": "_matricNo",
          "type": "string"
        }
      ],
      "name": "GetStudentInfo",
      "outputs": [
        {
          "internalType": "string",
          "name": "",
          "type": "string"
        }
      ],
      "payable": false,
      "stateMutability": "view",
      "type": "function"
    }
  ],
  "bytecode": "0x608060405234801561001057600080fd5b50611521806100206000396000f3fe608060405234801561001057600080fd5b506004361061004c5760003560e01c806304f61f5a146100515780634f952b0d146102b3578063bf9c69b314610533578063f60886b514610795575b600080fd5b6102386004803603606081101561006757600080fd5b810190808035906020019064010000000081111561008457600080fd5b82018360208201111561009657600080fd5b803590602001918460018302840111640100000000831117156100b857600080fd5b91908080601f016020809104026020016040519081016040528093929190818152602001838380828437600081840152601f19601f8201169050808301925050505050505091929192908035906020019064010000000081111561011b57600080fd5b82018360208201111561012d57600080fd5b8035906020019184600183028401116401000000008311171561014f57600080fd5b91908080601f016020809104026020016040519081016040528093929190818152602001838380828437600081840152601f19601f820116905080830192505050505050509192919290803590602001906401000000008111156101b257600080fd5b8201836020820111156101c457600080fd5b803590602001918460018302840111640100000000831117156101e657600080fd5b91908080601f016020809104026020016040519081016040528093929190818152602001838380828437600081840152601f19601f820116905080830192505050505050509192919290505050610a15565b6040518080602001828103825283818151815260200191508051906020019080838360005b8381101561027857808201518184015260208101905061025d565b50505050905090810190601f1680156102a55780820380516001836020036101000a031916815260200191505b509250505060405180910390f35b610531600480360360808110156102c957600080fd5b81019080803590602001906401000000008111156102e657600080fd5b8201836020820111156102f857600080fd5b8035906020019184600183028401116401000000008311171561031a57600080fd5b91908080601f016020809104026020016040519081016040528093929190818152602001838380828437600081840152601f19601f8201169050808301925050505050505091929192908035906020019064010000000081111561037d57600080fd5b82018360208201111561038f57600080fd5b803590602001918460018302840111640100000000831117156103b157600080fd5b91908080601f016020809104026020016040519081016040528093929190818152602001838380828437600081840152601f19601f8201169050808301925050505050505091929192908035906020019064010000000081111561041457600080fd5b82018360208201111561042657600080fd5b8035906020019184600183028401116401000000008311171561044857600080fd5b91908080601f016020809104026020016040519081016040528093929190818152602001838380828437600081840152601f19601f820116905080830192505050505050509192919290803590602001906401000000008111156104ab57600080fd5b8201836020820111156104bd57600080fd5b803590602001918460018302840111640100000000831117156104df57600080fd5b91908080601f016020809104026020016040519081016040528093929190818152602001838380828437600081840152601f19601f820116905080830192505050505050509192919290505050610e20565b005b61071a6004803603606081101561054957600080fd5b810190808035906020019064010000000081111561056657600080fd5b82018360208201111561057857600080fd5b8035906020019184600183028401116401000000008311171561059a57600080fd5b91908080601f016020809104026020016040519081016040528093929190818152602001838380828437600081840152601f19601f820116905080830192505050505050509192919290803590602001906401000000008111156105fd57600080fd5b82018360208201111561060f57600080fd5b8035906020019184600183028401116401000000008311171561063157600080fd5b91908080601f016020809104026020016040519081016040528093929190818152602001838380828437600081840152601f19601f8201169050808301925050505050505091929192908035906020019064010000000081111561069457600080fd5b8201836020820111156106a657600080fd5b803590602001918460018302840111640100000000831117156106c857600080fd5b91908080601f016020809104026020016040519081016040528093929190818152602001838380828437600081840152601f19601f820116905080830192505050505050509192919290505050610fa9565b6040518080602001828103825283818151815260200191508051906020019080838360005b8381101561075a57808201518184015260208101905061073f565b50505050905090810190601f1680156107875780820380516001836020036101000a031916815260200191505b509250505060405180910390f35b610a13600480360360808110156107ab57600080fd5b81019080803590602001906401000000008111156107c857600080fd5b8201836020820111156107da57600080fd5b803590602001918460018302840111640100000000831117156107fc57600080fd5b91908080601f016020809104026020016040519081016040528093929190818152602001838380828437600081840152601f19601f8201169050808301925050505050505091929192908035906020019064010000000081111561085f57600080fd5b82018360208201111561087157600080fd5b8035906020019184600183028401116401000000008311171561089357600080fd5b91908080601f016020809104026020016040519081016040528093929190818152602001838380828437600081840152601f19601f820116905080830192505050505050509192919290803590602001906401000000008111156108f657600080fd5b82018360208201111561090857600080fd5b8035906020019184600183028401116401000000008311171561092a57600080fd5b91908080601f016020809104026020016040519081016040528093929190818152602001838380828437600081840152601f19601f8201169050808301925050505050505091929192908035906020019064010000000081111561098d57600080fd5b82018360208201111561099f57600080fd5b803590602001918460018302840111640100000000831117156109c157600080fd5b91908080601f016020809104026020016040519081016040528093929190818152602001838380828437600081840152601f19601f8201169050808301925050505050505091929192905050506112be565b005b6060826040516020018082805190602001908083835b60208310610a4e5780518252602082019150602081019050602083039250610a2b565b6001836020036101000a038019825116818451168082178552505050505050905001915050604051602081830303815290604052805190602001206001856040518082805190602001908083835b60208310610abf5780518252602082019150602081019050602083039250610a9c565b6001836020036101000a03801982511681845116808217855250505050505090500191505090815260200160405180910390206001016040516020018082805460018160011615610100020316600290048015610b535780601f10610b31576101008083540402835291820191610b53565b820191906000526020600020905b815481529060010190602001808311610b3f575b505091505060405160208183030381529060405280519060200120148015610ccf5750816040516020018082805190602001908083835b60208310610bad5780518252602082019150602081019050602083039250610b8a565b6001836020036101000a038019825116818451168082178552505050505050905001915050604051602081830303815290604052805190602001206001856040518082805190602001908083835b60208310610c1e5780518252602082019150602081019050602083039250610bfb565b6001836020036101000a03801982511681845116808217855250505050505090500191505090815260200160405180910390206002016040516020018082805460018160011615610100020316600290048015610cb25780601f10610c90576101008083540402835291820191610cb2565b820191906000526020600020905b815481529060010190602001808311610c9e575b505091505060405160208183030381529060405280519060200120145b15610de0576001846040518082805190602001908083835b60208310610d0a5780518252602082019150602081019050602083039250610ce7565b6001836020036101000a03801982511681845116808217855250505050505090500191505090815260200160405180910390206003018054600181600116156101000203166002900480601f016020809104026020016040519081016040528092919081815260200182805460018160011615610100020316600290048015610dd45780601f10610da957610100808354040283529160200191610dd4565b820191906000526020600020905b815481529060010190602001808311610db757829003601f168201915b50505050509050610e19565b6040518060400160405280600981526020017f4e6f7420666f756e64000000000000000000000000000000000000000000000081525090505b9392505050565b826001856040518082805190602001908083835b60208310610e575780518252602082019150602081019050602083039250610e34565b6001836020036101000a03801982511681845116808217855250505050505090500191505090815260200160405180910390206001019080519060200190610ea0929190611447565b50816001856040518082805190602001908083835b60208310610ed85780518252602082019150602081019050602083039250610eb5565b6001836020036101000a03801982511681845116808217855250505050505090500191505090815260200160405180910390206002019080519060200190610f21929190611447565b50806001856040518082805190602001908083835b60208310610f595780518252602082019150602081019050602083039250610f36565b6001836020036101000a03801982511681845116808217855250505050505090500191505090815260200160405180910390206003019080519060200190610fa2929190611447565b5050505050565b606082805190602001206001856040518082805190602001908083835b60208310610fe95780518252602082019150602081019050602083039250610fc6565b6001836020036101000a0380198251168184511680821785525050505050509050019150509081526020016040518091039020600101604051808280546001816001161561010002031660029004801561107a5780601f1061105857610100808354040283529182019161107a565b820191906000526020600020905b815481529060010190602001808311611066575b5050915050604051809103902014801561116d575081805190602001206001856040518082805190602001908083835b602083106110cd57805182526020820191506020810190506020830392506110aa565b6001836020036101000a0380198251168184511680821785525050505050509050019150509081526020016040518091039020600201604051808280546001816001161561010002031660029004801561115e5780601f1061113c57610100808354040283529182019161115e565b820191906000526020600020905b81548152906001019060200180831161114a575b50509150506040518091039020145b1561127e576001846040518082805190602001908083835b602083106111a85780518252602082019150602081019050602083039250611185565b6001836020036101000a03801982511681845116808217855250505050505090500191505090815260200160405180910390206003018054600181600116156101000203166002900480601f0160208091040260200160405190810160405280929190818152602001828054600181600116156101000203166002900480156112725780601f1061124757610100808354040283529160200191611272565b820191906000526020600020905b81548152906001019060200180831161125557829003601f168201915b505050505090506112b7565b6040518060400160405280601281526020017f496e76616c69642063657274696963617465000000000000000000000000000081525090505b9392505050565b826001856040518082805190602001908083835b602083106112f557805182526020820191506020810190506020830392506112d2565b6001836020036101000a0380198251168184511680821785525050505050509050019150509081526020016040518091039020600101908051906020019061133e929190611447565b50816001856040518082805190602001908083835b602083106113765780518252602082019150602081019050602083039250611353565b6001836020036101000a038019825116818451168082178552505050505050905001915050908152602001604051809103902060020190805190602001906113bf929190611447565b50806001856040518082805190602001908083835b602083106113f757805182526020820191506020810190506020830392506113d4565b6001836020036101000a03801982511681845116808217855250505050505090500191505090815260200160405180910390206003019080519060200190611440929190611447565b5050505050565b828054600181600116156101000203166002900490600052602060002090601f016020900481019282601f1061148857805160ff19168380011785556114b6565b828001600101855582156114b6579182015b828111156114b557825182559160200191906001019061149a565b5b5090506114c391906114c7565b5090565b6114e991905b808211156114e55760008160009055506001016114cd565b5090565b9056fea265627a7a723158203c8f9d3f85c45beecf3d90faf794840e440bd8398fa159fd31aa7554da571b1864736f6c63430005100032",
  "source": "pragma solidity >=0.4.21 <0.7.0;\n\ncontract SimpleStorage {\n  string storedData;\n\n\n  struct studentInfo{\n        string firstName;\n        string lastName;\n        string matricNo;\n        string ipfsHash;\n    }\n    \n  mapping (string => studentInfo) AllStudents;\n    \n\n  function set(string memory _firstName, string memory _lastName, string memory _matricNo, string memory _ipfsHash) public {\n        AllStudents[_firstName].lastName = _lastName;\n        AllStudents[_firstName].matricNo = _matricNo;\n        AllStudents[_firstName].ipfsHash = _ipfsHash;\n  }\n\n  function get(string memory _firstName, string memory _lastName, string memory _matricNo) public view returns (string memory) {\n\n    if (    keccak256(abi.encodePacked( AllStudents[_firstName].lastName )) == keccak256(abi.encodePacked( _lastName )) &&  \n      keccak256(abi.encodePacked( AllStudents[_firstName].matricNo )) == keccak256(abi.encodePacked( _matricNo ))          ) {\n        return AllStudents[_firstName].ipfsHash;\n    }else{\n      return \"Not found\";\n    }\n    \n  }\n\n    function SetStudentInfo(string memory _firstName, string memory _lastName, string memory _matricNo, string memory _ipfsHash) public{\n        AllStudents[_firstName].lastName = _lastName;\n        AllStudents[_firstName].matricNo = _matricNo;\n        AllStudents[_firstName].ipfsHash = _ipfsHash;\n    }\n    \n    function GetStudentInfo(string memory _firstName, string memory _lastName, string memory _matricNo) public view returns(string memory){\n\n    \t\n    \tif (keccak256(bytes(AllStudents[_firstName].lastName)) == keccak256(bytes(_lastName)) && (keccak256(bytes(AllStudents[_firstName].matricNo)) == keccak256(bytes(_matricNo)))){\n    \t\treturn AllStudents[_firstName].ipfsHash;\n    \t}else{\n    \t\treturn \"Invalid certiicate\";\n    \t\t}\n        \n    }\n}\n",
  "sourcePath": "/Users/botosoftdev/Desktop/Blockchain/ipfs_certificate_upload/contracts/SimpleStorage.sol",
  "compiler": {
    "name": "solc",
    "version": "0.5.16+commit.9c3226ce.Emscripten.clang"
  },
  "schemaVersion": "3.1.0",
  "updatedAt": "2020-06-02T17:47:30.505Z",
  "networkType": "ethereum",
  "devdoc": {
    "methods": {}
  },
  "userdoc": {
    "methods": {}
  }
}