{
  "contractName": "SimpleStorage",
  "abi": [
    {
      "constant": true,
      "inputs": [],
      "name": "result",
      "outputs": [
        {
          "internalType": "string",
          "name": "",
          "type": "string"
        }
      ],
      "payable": false,
      "stateMutability": "view",
      "type": "function"
    },
    {
      "constant": false,
      "inputs": [
        {
          "internalType": "string",
          "name": "_firstName",
          "type": "string"
        },
        {
          "internalType": "string",
          "name": "_lastName",
          "type": "string"
        },
        {
          "internalType": "string",
          "name": "_matricNo",
          "type": "string"
        },
        {
          "internalType": "string",
          "name": "_ipfsHash",
          "type": "string"
        },
        {
          "internalType": "string",
          "name": "_ipfsHashFingerprint",
          "type": "string"
        },
        {
          "internalType": "string",
          "name": "_fingerPrintTemplate",
          "type": "string"
        }
      ],
      "name": "set",
      "outputs": [],
      "payable": false,
      "stateMutability": "nonpayable",
      "type": "function"
    },
    {
      "constant": true,
      "inputs": [
        {
          "internalType": "string",
          "name": "_firstName",
          "type": "string"
        },
        {
          "internalType": "string",
          "name": "_lastName",
          "type": "string"
        },
        {
          "internalType": "string",
          "name": "_matricNo",
          "type": "string"
        }
      ],
      "name": "get",
      "outputs": [
        {
          "internalType": "string",
          "name": "",
          "type": "string"
        }
      ],
      "payable": false,
      "stateMutability": "view",
      "type": "function"
    },
    {
      "constant": false,
      "inputs": [
        {
          "internalType": "string",
          "name": "_matricNo",
          "type": "string"
        },
        {
          "internalType": "string",
          "name": "_ipfsHash",
          "type": "string"
        },
        {
          "internalType": "string",
          "name": "_ipfsHashFingerprint",
          "type": "string"
        },
        {
          "internalType": "string",
          "name": "_fingerPrintTemplate",
          "type": "string"
        }
      ],
      "name": "setFingerPrint",
      "outputs": [],
      "payable": false,
      "stateMutability": "nonpayable",
      "type": "function"
    },
    {
      "constant": true,
      "inputs": [
        {
          "internalType": "string",
          "name": "_matricNo",
          "type": "string"
        }
      ],
      "name": "getFingerPrint",
      "outputs": [
        {
          "internalType": "string",
          "name": "",
          "type": "string"
        }
      ],
      "payable": false,
      "stateMutability": "view",
      "type": "function"
    }
  ],
  "bytecode": "0x608060405234801561001057600080fd5b506117a9806100206000396000f3fe608060405234801561001057600080fd5b50600436106100575760003560e01c806304f61f5a1461005c57806316d936fb146102be578063653721471461066c5780637357d185146106ef578063f4ffd96814610823575b600080fd5b6102436004803603606081101561007257600080fd5b810190808035906020019064010000000081111561008f57600080fd5b8201836020820111156100a157600080fd5b803590602001918460018302840111640100000000831117156100c357600080fd5b91908080601f016020809104026020016040519081016040528093929190818152602001838380828437600081840152601f19601f8201169050808301925050505050505091929192908035906020019064010000000081111561012657600080fd5b82018360208201111561013857600080fd5b8035906020019184600183028401116401000000008311171561015a57600080fd5b91908080601f016020809104026020016040519081016040528093929190818152602001838380828437600081840152601f19601f820116905080830192505050505050509192919290803590602001906401000000008111156101bd57600080fd5b8201836020820111156101cf57600080fd5b803590602001918460018302840111640100000000831117156101f157600080fd5b91908080601f016020809104026020016040519081016040528093929190818152602001838380828437600081840152601f19601f820116905080830192505050505050509192919290505050610aa3565b6040518080602001828103825283818151815260200191508051906020019080838360005b83811015610283578082015181840152602081019050610268565b50505050905090810190601f1680156102b05780820380516001836020036101000a031916815260200191505b509250505060405180910390f35b61066a600480360360c08110156102d457600080fd5b81019080803590602001906401000000008111156102f157600080fd5b82018360208201111561030357600080fd5b8035906020019184600183028401116401000000008311171561032557600080fd5b91908080601f016020809104026020016040519081016040528093929190818152602001838380828437600081840152601f19601f8201169050808301925050505050505091929192908035906020019064010000000081111561038857600080fd5b82018360208201111561039a57600080fd5b803590602001918460018302840111640100000000831117156103bc57600080fd5b91908080601f016020809104026020016040519081016040528093929190818152602001838380828437600081840152601f19601f8201169050808301925050505050505091929192908035906020019064010000000081111561041f57600080fd5b82018360208201111561043157600080fd5b8035906020019184600183028401116401000000008311171561045357600080fd5b91908080601f016020809104026020016040519081016040528093929190818152602001838380828437600081840152601f19601f820116905080830192505050505050509192919290803590602001906401000000008111156104b657600080fd5b8201836020820111156104c857600080fd5b803590602001918460018302840111640100000000831117156104ea57600080fd5b91908080601f016020809104026020016040519081016040528093929190818152602001838380828437600081840152601f19601f8201169050808301925050505050505091929192908035906020019064010000000081111561054d57600080fd5b82018360208201111561055f57600080fd5b8035906020019184600183028401116401000000008311171561058157600080fd5b91908080601f016020809104026020016040519081016040528093929190818152602001838380828437600081840152601f19601f820116905080830192505050505050509192919290803590602001906401000000008111156105e457600080fd5b8201836020820111156105f657600080fd5b8035906020019184600183028401116401000000008311171561061857600080fd5b91908080601f016020809104026020016040519081016040528093929190818152602001838380828437600081840152601f19601f820116905080830192505050505050509192919290505050610eae565b005b61067461113b565b6040518080602001828103825283818151815260200191508051906020019080838360005b838110156106b4578082015181840152602081019050610699565b50505050905090810190601f1680156106e15780820380516001836020036101000a031916815260200191505b509250505060405180910390f35b6107a86004803603602081101561070557600080fd5b810190808035906020019064010000000081111561072257600080fd5b82018360208201111561073457600080fd5b8035906020019184600183028401116401000000008311171561075657600080fd5b91908080601f016020809104026020016040519081016040528093929190818152602001838380828437600081840152601f19601f8201169050808301925050505050505091929192905050506111d9565b6040518080602001828103825283818151815260200191508051906020019080838360005b838110156107e85780820151818401526020810190506107cd565b50505050905090810190601f1680156108155780820380516001836020036101000a031916815260200191505b509250505060405180910390f35b610aa16004803603608081101561083957600080fd5b810190808035906020019064010000000081111561085657600080fd5b82018360208201111561086857600080fd5b8035906020019184600183028401116401000000008311171561088a57600080fd5b91908080601f016020809104026020016040519081016040528093929190818152602001838380828437600081840152601f19601f820116905080830192505050505050509192919290803590602001906401000000008111156108ed57600080fd5b8201836020820111156108ff57600080fd5b8035906020019184600183028401116401000000008311171561092157600080fd5b91908080601f016020809104026020016040519081016040528093929190818152602001838380828437600081840152601f19601f8201169050808301925050505050505091929192908035906020019064010000000081111561098457600080fd5b82018360208201111561099657600080fd5b803590602001918460018302840111640100000000831117156109b857600080fd5b91908080601f016020809104026020016040519081016040528093929190818152602001838380828437600081840152601f19601f82011690508083019250505050505050919291929080359060200190640100000000811115610a1b57600080fd5b820183602082011115610a2d57600080fd5b80359060200191846001830284011164010000000083111715610a4f57600080fd5b91908080601f016020809104026020016040519081016040528093929190818152602001838380828437600081840152601f19601f82011690508083019250505050505050919291929050505061142a565b005b6060826040516020018082805190602001908083835b60208310610adc5780518252602082019150602081019050602083039250610ab9565b6001836020036101000a038019825116818451168082178552505050505050905001915050604051602081830303815290604052805190602001206002856040518082805190602001908083835b60208310610b4d5780518252602082019150602081019050602083039250610b2a565b6001836020036101000a03801982511681845116808217855250505050505090500191505090815260200160405180910390206001016040516020018082805460018160011615610100020316600290048015610be15780601f10610bbf576101008083540402835291820191610be1565b820191906000526020600020905b815481529060010190602001808311610bcd575b505091505060405160208183030381529060405280519060200120148015610d5d5750816040516020018082805190602001908083835b60208310610c3b5780518252602082019150602081019050602083039250610c18565b6001836020036101000a038019825116818451168082178552505050505050905001915050604051602081830303815290604052805190602001206002856040518082805190602001908083835b60208310610cac5780518252602082019150602081019050602083039250610c89565b6001836020036101000a03801982511681845116808217855250505050505090500191505090815260200160405180910390206002016040516020018082805460018160011615610100020316600290048015610d405780601f10610d1e576101008083540402835291820191610d40565b820191906000526020600020905b815481529060010190602001808311610d2c575b505091505060405160208183030381529060405280519060200120145b15610e6e576002846040518082805190602001908083835b60208310610d985780518252602082019150602081019050602083039250610d75565b6001836020036101000a03801982511681845116808217855250505050505090500191505090815260200160405180910390206003018054600181600116156101000203166002900480601f016020809104026020016040519081016040528092919081815260200182805460018160011615610100020316600290048015610e625780601f10610e3757610100808354040283529160200191610e62565b820191906000526020600020905b815481529060010190602001808311610e4557829003601f168201915b50505050509050610ea7565b6040518060400160405280600981526020017f4e6f7420666f756e64000000000000000000000000000000000000000000000081525090505b9392505050565b846002876040518082805190602001908083835b60208310610ee55780518252602082019150602081019050602083039250610ec2565b6001836020036101000a03801982511681845116808217855250505050505090500191505090815260200160405180910390206001019080519060200190610f2e9291906116cf565b50836002876040518082805190602001908083835b60208310610f665780518252602082019150602081019050602083039250610f43565b6001836020036101000a03801982511681845116808217855250505050505090500191505090815260200160405180910390206002019080519060200190610faf9291906116cf565b50826002876040518082805190602001908083835b60208310610fe75780518252602082019150602081019050602083039250610fc4565b6001836020036101000a038019825116818451168082178552505050505050905001915050908152602001604051809103902060030190805190602001906110309291906116cf565b50816002876040518082805190602001908083835b602083106110685780518252602082019150602081019050602083039250611045565b6001836020036101000a038019825116818451168082178552505050505050905001915050908152602001604051809103902060040190805190602001906110b19291906116cf565b50806002876040518082805190602001908083835b602083106110e957805182526020820191506020810190506020830392506110c6565b6001836020036101000a038019825116818451168082178552505050505050905001915050908152602001604051809103902060050190805190602001906111329291906116cf565b50505050505050565b60008054600181600116156101000203166002900480601f0160208091040260200160405190810160405280929190818152602001828054600181600116156101000203166002900480156111d15780601f106111a6576101008083540402835291602001916111d1565b820191906000526020600020905b8154815290600101906020018083116111b457829003601f168201915b505050505081565b60606114236003836040518082805190602001908083835b6020831061121457805182526020820191506020810190506020830392506111f1565b6001836020036101000a03801982511681845116808217855250505050505090500191505090815260200160405180910390206003018054600181600116156101000203166002900480601f0160208091040260200160405190810160405280929190818152602001828054600181600116156101000203166002900480156112de5780601f106112b3576101008083540402835291602001916112de565b820191906000526020600020905b8154815290600101906020018083116112c157829003601f168201915b50505050506040518060400160405280600b81526020017f2d2d2d2d2d2a2d2d2d2d2d0000000000000000000000000000000000000000008152506003856040518082805190602001908083835b6020831061134f578051825260208201915060208101905060208303925061132c565b6001836020036101000a03801982511681845116808217855250505050505090500191505090815260200160405180910390206001018054600181600116156101000203166002900480601f0160208091040260200160405190810160405280929190818152602001828054600181600116156101000203166002900480156114195780601f106113ee57610100808354040283529160200191611419565b820191906000526020600020905b8154815290600101906020018083116113fc57829003601f168201915b50505050506115b3565b9050919050565b826003856040518082805190602001908083835b60208310611461578051825260208201915060208101905060208303925061143e565b6001836020036101000a038019825116818451168082178552505050505050905001915050908152602001604051809103902060010190805190602001906114aa9291906116cf565b50816003856040518082805190602001908083835b602083106114e257805182526020820191506020810190506020830392506114bf565b6001836020036101000a0380198251168184511680821785525050505050509050019150509081526020016040518091039020600201908051906020019061152b9291906116cf565b50806003856040518082805190602001908083835b602083106115635780518252602082019150602081019050602083039250611540565b6001836020036101000a038019825116818451168082178552505050505050905001915050908152602001604051809103902060030190805190602001906115ac9291906116cf565b5050505050565b60608383836040516020018084805190602001908083835b602083106115ee57805182526020820191506020810190506020830392506115cb565b6001836020036101000a03801982511681845116808217855250505050505090500183805190602001908083835b6020831061163f578051825260208201915060208101905060208303925061161c565b6001836020036101000a03801982511681845116808217855250505050505090500182805190602001908083835b60208310611690578051825260208201915060208101905060208303925061166d565b6001836020036101000a038019825116818451168082178552505050505050905001935050505060405160208183030381529060405290509392505050565b828054600181600116156101000203166002900490600052602060002090601f016020900481019282601f1061171057805160ff191683800117855561173e565b8280016001018555821561173e579182015b8281111561173d578251825591602001919060010190611722565b5b50905061174b919061174f565b5090565b61177191905b8082111561176d576000816000905550600101611755565b5090565b9056fea265627a7a72315820c6b5870d17cef6ee75f6c047bbcdce9e4a2f943c8f4a466dfeb089b6ff7f24b064736f6c63430005100032",
  "source": "pragma solidity >=0.4.21 <0.7.0;\r\n\r\n\r\ncontract SimpleStorage {\r\n  string public result;\r\n\r\n\r\n  string storedData;\r\n\r\n\r\n  struct studentInfo{\r\n        string firstName;\r\n        string lastName;\r\n        string matricNo;\r\n        string ipfsHash;\r\n        string ipfsHashFingerprint;\r\n        string fingerPrintTemplate;\r\n  }\r\n\r\n  struct studentInfoFingerPrint{\r\n        string matricNo;\r\n        string ipfsHash;\r\n        string ipfsHashFingerprint;\r\n        string fingerPrintTemplate;\r\n  }\r\n    \r\n  mapping (string => studentInfo) AllStudents;\r\n\r\n   mapping (string => studentInfoFingerPrint) AllStudentsFingerPrint;\r\n    \r\n\r\n  function set(string memory _firstName, string memory _lastName, string memory _matricNo, string memory _ipfsHash, string memory _ipfsHashFingerprint, string memory _fingerPrintTemplate) public {\r\n        AllStudents[_firstName].lastName = _lastName;\r\n        AllStudents[_firstName].matricNo = _matricNo;\r\n        AllStudents[_firstName].ipfsHash = _ipfsHash;\r\n        AllStudents[_firstName].ipfsHashFingerprint = _ipfsHashFingerprint;\r\n        AllStudents[_firstName].fingerPrintTemplate = _fingerPrintTemplate;\r\n  }\r\n\r\n  function get(string memory _firstName, string memory _lastName, string memory _matricNo) public view returns (string memory) {\r\n\r\n    if (    keccak256(abi.encodePacked( AllStudents[_firstName].lastName )) == keccak256(abi.encodePacked( _lastName )) &&  \r\n      keccak256(abi.encodePacked( AllStudents[_firstName].matricNo )) == keccak256(abi.encodePacked( _matricNo ))          ) {\r\n        return AllStudents[_firstName].ipfsHash;\r\n    }else{\r\n      return \"Not found\";\r\n    }\r\n    \r\n  }\r\n\r\n  function setFingerPrint(string memory _matricNo, string memory _ipfsHash, string memory _ipfsHashFingerprint, string memory _fingerPrintTemplate) public {\r\n    AllStudentsFingerPrint[_matricNo].ipfsHash = _ipfsHash;\r\n    AllStudentsFingerPrint[_matricNo].ipfsHashFingerprint = _ipfsHashFingerprint;\r\n    AllStudentsFingerPrint[_matricNo].fingerPrintTemplate = _fingerPrintTemplate;\r\n  }\r\n\r\n  function append(string memory a, string memory b, string memory c) internal pure returns (string memory) {\r\n\r\n    return string(abi.encodePacked(a, b, c));\r\n\r\n  }\r\n\r\n  function getFingerPrint(string memory _matricNo) public view returns (string memory) {\r\n\r\n    return append(AllStudentsFingerPrint[_matricNo].fingerPrintTemplate, \"-----*-----\", AllStudentsFingerPrint[_matricNo].ipfsHash);\r\n  }\r\n\r\n  \r\n\r\n\r\n\r\n    \r\n}\r\n",
  "sourcePath": "C:/Users/opeyemi/Blockchain/Blockchain-DApp-Certificate-Verifier/contracts/SimpleStorage.sol",
  "compiler": {
    "name": "solc",
    "version": "0.5.16+commit.9c3226ce.Emscripten.clang"
  },
  "schemaVersion": "3.2.4",
  "updatedAt": "2020-08-29T10:13:15.119Z",
  "networkType": "ethereum",
  "devdoc": {
    "methods": {}
  },
  "userdoc": {
    "methods": {}
  }
}